{
  "contractName": "Crowdfunding",
  "abi": [
    {
      "anonymous": false,
      "inputs": [
        {
          "indexed": false,
          "internalType": "uint256",
          "name": "campaignId",
          "type": "uint256"
        },
        {
          "indexed": false,
          "internalType": "address",
          "name": "creator",
          "type": "address"
        },
        {
          "indexed": false,
          "internalType": "uint256",
          "name": "goal",
          "type": "uint256"
        },
        {
          "indexed": false,
          "internalType": "uint256",
          "name": "deadline",
          "type": "uint256"
        }
      ],
      "name": "CampaignCreated",
      "type": "event"
    },
    {
      "anonymous": false,
      "inputs": [
        {
          "indexed": false,
          "internalType": "uint256",
          "name": "campaignId",
          "type": "uint256"
        },
        {
          "indexed": false,
          "internalType": "address",
          "name": "donor",
          "type": "address"
        },
        {
          "indexed": false,
          "internalType": "uint256",
          "name": "amount",
          "type": "uint256"
        }
      ],
      "name": "DonationReceived",
      "type": "event"
    },
    {
      "anonymous": false,
      "inputs": [
        {
          "indexed": false,
          "internalType": "uint256",
          "name": "campaignId",
          "type": "uint256"
        }
      ],
      "name": "GoalReached",
      "type": "event"
    },
    {
      "anonymous": false,
      "inputs": [
        {
          "indexed": false,
          "internalType": "uint256",
          "name": "campaignId",
          "type": "uint256"
        },
        {
          "indexed": false,
          "internalType": "address",
          "name": "contributor",
          "type": "address"
        },
        {
          "indexed": false,
          "internalType": "uint256",
          "name": "amount",
          "type": "uint256"
        }
      ],
      "name": "RefundIssued",
      "type": "event"
    },
    {
      "inputs": [],
      "name": "campaignCount",
      "outputs": [
        {
          "internalType": "uint256",
          "name": "",
          "type": "uint256"
        }
      ],
      "stateMutability": "view",
      "type": "function",
      "constant": true
    },
    {
      "inputs": [
        {
          "internalType": "uint256",
          "name": "",
          "type": "uint256"
        }
      ],
      "name": "campaigns",
      "outputs": [
        {
          "internalType": "address payable",
          "name": "creator",
          "type": "address"
        },
        {
          "internalType": "uint256",
          "name": "goal",
          "type": "uint256"
        },
        {
          "internalType": "uint256",
          "name": "raisedAmount",
          "type": "uint256"
        },
        {
          "internalType": "uint256",
          "name": "deadline",
          "type": "uint256"
        },
        {
          "internalType": "bool",
          "name": "completed",
          "type": "bool"
        }
      ],
      "stateMutability": "view",
      "type": "function",
      "constant": true
    },
    {
      "inputs": [
        {
          "internalType": "uint256",
          "name": "",
          "type": "uint256"
        },
        {
          "internalType": "address",
          "name": "",
          "type": "address"
        }
      ],
      "name": "contributions",
      "outputs": [
        {
          "internalType": "uint256",
          "name": "",
          "type": "uint256"
        }
      ],
      "stateMutability": "view",
      "type": "function",
      "constant": true
    },
    {
      "inputs": [
        {
          "internalType": "uint256",
          "name": "_goal",
          "type": "uint256"
        },
        {
          "internalType": "uint256",
          "name": "_durationInMinutes",
          "type": "uint256"
        }
      ],
      "name": "createCampaign",
      "outputs": [],
      "stateMutability": "nonpayable",
      "type": "function"
    },
    {
      "inputs": [
        {
          "internalType": "uint256",
          "name": "_campaignId",
          "type": "uint256"
        }
      ],
      "name": "donate",
      "outputs": [],
      "stateMutability": "payable",
      "type": "function",
      "payable": true
    },
    {
      "inputs": [
        {
          "internalType": "uint256",
          "name": "_campaignId",
          "type": "uint256"
        }
      ],
      "name": "refund",
      "outputs": [],
      "stateMutability": "nonpayable",
      "type": "function"
    }
  ],
  "bytecode": "0x6080604052600060015534801561001557600080fd5b50610f91806100256000396000f3fe6080604052600436106100555760003560e01c8063141961bc1461005a578063225022681461009b578063278ecde1146100c45780633d891f59146100ed5780637274e30d1461012a578063f14faf6f14610155575b600080fd5b34801561006657600080fd5b50610081600480360381019061007c91906108ad565b610171565b604051610092959493929190610bb0565b60405180910390f35b3480156100a757600080fd5b506100c260048036038101906100bd9190610912565b6101d4565b005b3480156100d057600080fd5b506100eb60048036038101906100e691906108ad565b6103af565b005b3480156100f957600080fd5b50610114600480360381019061010f91906108d6565b6105d3565b6040516101219190610d03565b60405180910390f35b34801561013657600080fd5b5061013f6105f8565b60405161014c9190610d03565b60405180910390f35b61016f600480360381019061016a91906108ad565b6105fe565b005b60006020528060005260406000206000915090508060000160009054906101000a900473ffffffffffffffffffffffffffffffffffffffff16908060010154908060020154908060030154908060040160009054906101000a900460ff16905085565b60008211610217576040517f08c379a000000000000000000000000000000000000000000000000000000000815260040161020e90610ce3565b60405180910390fd5b6000811161025a576040517f08c379a000000000000000000000000000000000000000000000000000000000815260040161025190610c83565b60405180910390fd5b6001600081548092919061026d90610eb5565b91905055506000603c826102819190610e01565b4261028c9190610dab565b90506040518060a001604052803373ffffffffffffffffffffffffffffffffffffffff1681526020018481526020016000815260200182815260200160001515815250600080600154815260200190815260200160002060008201518160000160006101000a81548173ffffffffffffffffffffffffffffffffffffffff021916908373ffffffffffffffffffffffffffffffffffffffff16021790555060208201518160010155604082015181600201556060820151816003015560808201518160040160006101000a81548160ff0219169083151502179055509050507f91b289a829e71d811b8c69e4a24ba2d40d115d8a236e9a724cb3bb2d43cf72236001543385846040516103a29493929190610d55565b60405180910390a1505050565b60008060008381526020019081526020016000209050806003015442101561040c576040517f08c379a000000000000000000000000000000000000000000000000000000000815260040161040390610c03565b60405180910390fd5b8060040160009054906101000a900460ff161561045e576040517f08c379a000000000000000000000000000000000000000000000000000000000815260040161045590610ca3565b60405180910390fd5b60006002600084815260200190815260200160002060003373ffffffffffffffffffffffffffffffffffffffff1673ffffffffffffffffffffffffffffffffffffffff168152602001908152602001600020549050600081116104f6576040517f08c379a00000000000000000000000000000000000000000000000000000000081526004016104ed90610c63565b60405180910390fd5b60006002600085815260200190815260200160002060003373ffffffffffffffffffffffffffffffffffffffff1673ffffffffffffffffffffffffffffffffffffffff168152602001908152602001600020819055503373ffffffffffffffffffffffffffffffffffffffff166108fc829081150290604051600060405180830381858888f19350505050158015610592573d6000803e3d6000fd5b507f7a482fdeb6bc9a1376f597068a214a7a39472bb2eff1b8cad21ba04f49ddca1b8333836040516105c693929190610d1e565b60405180910390a1505050565b6002602052816000526040600020602052806000526040600020600091509150505481565b60015481565b600080600083815260200190815260200160002090508060030154421061065a576040517f08c379a000000000000000000000000000000000000000000000000000000000815260040161065190610c23565b60405180910390fd5b8060040160009054906101000a900460ff16156106ac576040517f08c379a00000000000000000000000000000000000000000000000000000000081526004016106a390610cc3565b60405180910390fd5b600034116106ef576040517f08c379a00000000000000000000000000000000000000000000000000000000081526004016106e690610c43565b60405180910390fd5b348160020160008282546107039190610dab565b92505081905550346002600084815260200190815260200160002060003373ffffffffffffffffffffffffffffffffffffffff1673ffffffffffffffffffffffffffffffffffffffff168152602001908152602001600020600082825461076a9190610dab565b925050819055507f0b5b4c52969ff7329ecf7ee536409fda87812b15a8622bc6e8cdeab3aee14a268233346040516107a493929190610d1e565b60405180910390a1806001015481600201541061087f5760018160040160006101000a81548160ff0219169083151502179055508060000160009054906101000a900473ffffffffffffffffffffffffffffffffffffffff1673ffffffffffffffffffffffffffffffffffffffff166108fc82600201549081150290604051600060405180830381858888f19350505050158015610846573d6000803e3d6000fd5b507ffbfd8ab7c24300fa9888cd721c8565a7da56759384781283684dcf7c7c4a846b826040516108769190610d03565b60405180910390a15b5050565b60008135905061089281610f2d565b92915050565b6000813590506108a781610f44565b92915050565b6000602082840312156108bf57600080fd5b60006108cd84828501610898565b91505092915050565b600080604083850312156108e957600080fd5b60006108f785828601610898565b925050602061090885828601610883565b9150509250929050565b6000806040838503121561092557600080fd5b600061093385828601610898565b925050602061094485828601610898565b9150509250929050565b61095781610e6d565b82525050565b61096681610e5b565b82525050565b61097581610e7f565b82525050565b6000610988601983610d9a565b91507f43616d706169676e206973207374696c6c2072756e6e696e67000000000000006000830152602082019050919050565b60006109c8601283610d9a565b91507f43616d706169676e2068617320656e64656400000000000000000000000000006000830152602082019050919050565b6000610a08601f83610d9a565b91507f446f6e6174696f6e206d7573742062652067726561746572207468616e2030006000830152602082019050919050565b6000610a48602283610d9a565b91507f4e6f20636f6e747269627574696f6e732066726f6d207468697320616464726560008301527f73730000000000000000000000000000000000000000000000000000000000006020830152604082019050919050565b6000610aae601f83610d9a565b91507f4475726174696f6e206d7573742062652067726561746572207468616e2030006000830152602082019050919050565b6000610aee601983610d9a565b91507f43616d706169676e20676f616c207761732072656163686564000000000000006000830152602082019050919050565b6000610b2e601d83610d9a565b91507f43616d706169676e20697320616c726561647920636f6d706c657465640000006000830152602082019050919050565b6000610b6e601b83610d9a565b91507f476f616c206d7573742062652067726561746572207468616e203000000000006000830152602082019050919050565b610baa81610eab565b82525050565b600060a082019050610bc5600083018861094e565b610bd26020830187610ba1565b610bdf6040830186610ba1565b610bec6060830185610ba1565b610bf9608083018461096c565b9695505050505050565b60006020820190508181036000830152610c1c8161097b565b9050919050565b60006020820190508181036000830152610c3c816109bb565b9050919050565b60006020820190508181036000830152610c5c816109fb565b9050919050565b60006020820190508181036000830152610c7c81610a3b565b9050919050565b60006020820190508181036000830152610c9c81610aa1565b9050919050565b60006020820190508181036000830152610cbc81610ae1565b9050919050565b60006020820190508181036000830152610cdc81610b21565b9050919050565b60006020820190508181036000830152610cfc81610b61565b9050919050565b6000602082019050610d186000830184610ba1565b92915050565b6000606082019050610d336000830186610ba1565b610d40602083018561095d565b610d4d6040830184610ba1565b949350505050565b6000608082019050610d6a6000830187610ba1565b610d77602083018661095d565b610d846040830185610ba1565b610d916060830184610ba1565b95945050505050565b600082825260208201905092915050565b6000610db682610eab565b9150610dc183610eab565b9250827fffffffffffffffffffffffffffffffffffffffffffffffffffffffffffffffff03821115610df657610df5610efe565b5b828201905092915050565b6000610e0c82610eab565b9150610e1783610eab565b9250817fffffffffffffffffffffffffffffffffffffffffffffffffffffffffffffffff0483118215151615610e5057610e4f610efe565b5b828202905092915050565b6000610e6682610e8b565b9050919050565b6000610e7882610e8b565b9050919050565b60008115159050919050565b600073ffffffffffffffffffffffffffffffffffffffff82169050919050565b6000819050919050565b6000610ec082610eab565b91507fffffffffffffffffffffffffffffffffffffffffffffffffffffffffffffffff821415610ef357610ef2610efe565b5b600182019050919050565b7f4e487b7100000000000000000000000000000000000000000000000000000000600052601160045260246000fd5b610f3681610e5b565b8114610f4157600080fd5b50565b610f4d81610eab565b8114610f5857600080fd5b5056fea2646970667358221220f83ae3900a3c5fb32a5d49534b760736c25b513d60aa4be0097106cd78c9601964736f6c63430008000033",
  "immutableReferences": {},
  "source": "//SPDX License-Identifier: MIT\r\npragma solidity ^0.8.0;\r\n\r\ncontract Crowdfunding {\r\n\r\n    struct Campaign {\r\n        address payable creator;\r\n        uint goal;\r\n        uint raisedAmount;\r\n        uint deadline;\r\n        bool completed;\r\n    }\r\n\r\n    mapping(uint => Campaign) public campaigns;\r\n    uint public campaignCount = 0;\r\n    mapping(uint => mapping(address => uint)) public contributions;\r\n\r\n    // Events\r\n    event CampaignCreated(uint campaignId, address creator, uint goal, uint deadline);\r\n    event DonationReceived(uint campaignId, address donor, uint amount);\r\n    event GoalReached(uint campaignId);\r\n    event RefundIssued(uint campaignId, address contributor, uint amount);\r\n\r\n    // Create a new crowdfunding campaign\r\n    function createCampaign(uint _goal, uint _durationInMinutes) public {\r\n    require(_goal > 0, \"Goal must be greater than 0\");\r\n    require(_durationInMinutes > 0, \"Duration must be greater than 0\");\r\n\r\n    campaignCount++;\r\n    uint deadline = block.timestamp + (_durationInMinutes * 1 minutes);\r\n\r\n    campaigns[campaignCount] = Campaign(\r\n        payable(msg.sender),\r\n        _goal,\r\n        0,\r\n        deadline,\r\n        false\r\n    );\r\n\r\n    emit CampaignCreated(campaignCount, msg.sender, _goal, deadline);\r\n}\r\n\r\n\r\n    // Donate to a campaign\r\n    function donate(uint _campaignId) public payable {\r\n        Campaign storage campaign = campaigns[_campaignId];\r\n        require(block.timestamp < campaign.deadline, \"Campaign has ended\");\r\n        require(!campaign.completed, \"Campaign is already completed\");\r\n        require(msg.value > 0, \"Donation must be greater than 0\");\r\n\r\n        campaign.raisedAmount += msg.value;\r\n        contributions[_campaignId][msg.sender] += msg.value;\r\n\r\n        emit DonationReceived(_campaignId, msg.sender, msg.value);\r\n\r\n        if (campaign.raisedAmount >= campaign.goal) {\r\n            campaign.completed = true;\r\n            campaign.creator.transfer(campaign.raisedAmount);\r\n\r\n            emit GoalReached(_campaignId);\r\n        }\r\n    }\r\n\r\n    // Request refund if campaign failed\r\n    function refund(uint _campaignId) public {\r\n        Campaign storage campaign = campaigns[_campaignId];\r\n        require(block.timestamp >= campaign.deadline, \"Campaign is still running\");\r\n        require(!campaign.completed, \"Campaign goal was reached\");\r\n\r\n        uint contributedAmount = contributions[_campaignId][msg.sender];\r\n        require(contributedAmount > 0, \"No contributions from this address\");\r\n\r\n        contributions[_campaignId][msg.sender] = 0;\r\n        payable(msg.sender).transfer(contributedAmount);\r\n\r\n        emit RefundIssued(_campaignId, msg.sender, contributedAmount);\r\n    }\r\n}\r\n",
  "sourcePath": "C:\\Users\\Shree\\Desktop\\BTMP\\CrowdfundingPlatform\\contracts\\crowdfunding.sol",
  "compiler": {
    "name": "solc",
    "version": "0.8.0+commit.c7dfd78e.Emscripten.clang"
  },
  "schemaVersion": "3.4.16",
  "updatedAt": "2024-10-16T04:28:03.436Z",
  "networkType": "ethereum",
  "devdoc": {
    "kind": "dev",
    "methods": {},
    "version": 1
  },
  "userdoc": {
    "kind": "user",
    "methods": {},
    "version": 1
  }
}